{
  "contracts/Nebula.sol": {
    "Nebula": {
      "abi": [
        {
          "inputs": [],
          "stateMutability": "nonpayable",
          "type": "constructor"
        },
        {
          "inputs": [
            {
              "internalType": "address",
              "name": "owner",
              "type": "address"
            }
          ],
          "name": "OwnableInvalidOwner",
          "type": "error"
        },
        {
          "inputs": [
            {
              "internalType": "address",
              "name": "account",
              "type": "address"
            }
          ],
          "name": "OwnableUnauthorizedAccount",
          "type": "error"
        },
        {
          "anonymous": false,
          "inputs": [
            {
              "indexed": true,
              "internalType": "address",
              "name": "previousOwner",
              "type": "address"
            },
            {
              "indexed": true,
              "internalType": "address",
              "name": "newOwner",
              "type": "address"
            }
          ],
          "name": "OwnershipTransferred",
          "type": "event"
        },
        {
          "anonymous": false,
          "inputs": [
            {
              "indexed": true,
              "internalType": "bytes32",
              "name": "uid",
              "type": "bytes32"
            },
            {
              "indexed": false,
              "internalType": "string",
              "name": "coinType",
              "type": "string"
            },
            {
              "indexed": false,
              "internalType": "uint256",
              "name": "decimals",
              "type": "uint256"
            },
            {
              "indexed": false,
              "internalType": "uint256",
              "name": "amount",
              "type": "uint256"
            },
            {
              "indexed": false,
              "internalType": "bytes32",
              "name": "receiver",
              "type": "bytes32"
            }
          ],
          "name": "TokenLocked",
          "type": "event"
        },
        {
          "inputs": [
            {
              "internalType": "address",
              "name": "token",
              "type": "address"
            }
          ],
          "name": "getCoinType",
          "outputs": [
            {
              "internalType": "string",
              "name": "",
              "type": "string"
            }
          ],
          "stateMutability": "view",
          "type": "function"
        },
        {
          "inputs": [],
          "name": "getNonce",
          "outputs": [
            {
              "internalType": "uint256",
              "name": "",
              "type": "uint256"
            }
          ],
          "stateMutability": "view",
          "type": "function"
        },
        {
          "inputs": [
            {
              "internalType": "address",
              "name": "token",
              "type": "address"
            },
            {
              "internalType": "uint256",
              "name": "amount",
              "type": "uint256"
            },
            {
              "internalType": "bytes32",
              "name": "receiver",
              "type": "bytes32"
            }
          ],
          "name": "lock",
          "outputs": [],
          "stateMutability": "nonpayable",
          "type": "function"
        },
        {
          "inputs": [
            {
              "internalType": "bytes32",
              "name": "receiver",
              "type": "bytes32"
            }
          ],
          "name": "lockETH",
          "outputs": [],
          "stateMutability": "payable",
          "type": "function"
        },
        {
          "inputs": [],
          "name": "owner",
          "outputs": [
            {
              "internalType": "address",
              "name": "",
              "type": "address"
            }
          ],
          "stateMutability": "view",
          "type": "function"
        },
        {
          "inputs": [],
          "name": "renounceOwnership",
          "outputs": [],
          "stateMutability": "nonpayable",
          "type": "function"
        },
        {
          "inputs": [
            {
              "internalType": "address",
              "name": "token",
              "type": "address"
            },
            {
              "internalType": "string",
              "name": "coinType",
              "type": "string"
            }
          ],
          "name": "setCoinType",
          "outputs": [],
          "stateMutability": "nonpayable",
          "type": "function"
        },
        {
          "inputs": [
            {
              "internalType": "address",
              "name": "newOwner",
              "type": "address"
            }
          ],
          "name": "transferOwnership",
          "outputs": [],
          "stateMutability": "nonpayable",
          "type": "function"
        }
      ],
      "evm": {
        "bytecode": {
          "linkReferences": {},
          "object": "608080604052346075573315605f5760008054336001600160a01b0319821681178355916001600160a01b03909116907f8be0079c531659141344cd1fd0a4f28419497f9722a3daafe3b4186f6b6457e09080a361087b908161007b8239f35b631e4fbdf760e01b600052600060045260246000fd5b600080fdfe608080604052600436101561001357600080fd5b60003560e01c9081634de4eafc1461055057508063715018a6146104ea57806377ffd4511461041e5780638da5cb5b146103f7578063b37e4e3514610360578063ca3369c614610149578063d087d2881461012b5763f2fde38b1461007757600080fd5b34610126576020366003190112610126576001600160a01b0361009861070e565b6100a0610803565b1680156100f7576001600160a01b036000548273ffffffffffffffffffffffffffffffffffffffff19821617600055167f8be0079c531659141344cd1fd0a4f28419497f9722a3daafe3b4186f6b6457e0600080a3005b7f1e4fbdf700000000000000000000000000000000000000000000000000000000600052600060045260246000fd5b600080fd5b34610126576000366003190112610126576020600154604051908152f35b346101265760603660031901126101265761016261070e565b6024356001600160a01b036044359216906040517f23b872dd0000000000000000000000000000000000000000000000000000000081523360048201523060248201528160448201526020816064816000875af1801561031c57610328575b506040517f313ce567000000000000000000000000000000000000000000000000000000008152602081600481865afa90811561031c576000916102b9575b507fe80829958c6bfcf6975b892d75fe361e37dac7a1013e1bcb5bc558498806da8c9161027f916001549560405160208101908882528760408201528460608201528260808201526080815261025760a082610724565b51902095600052600260205260406000209260ff604051958695608087526080870190610780565b93166020850152604084015260608301520390a2600181018091116102a357600155005b634e487b7160e01b600052601160045260246000fd5b6020813d602011610314575b816102d260209383610724565b8101031261031057519060ff8216820361030d57507fe80829958c6bfcf6975b892d75fe361e37dac7a1013e1bcb5bc558498806da8c610200565b80fd5b5080fd5b3d91506102c5565b6040513d6000823e3d90fd5b6020813d602011610358575b8161034160209383610724565b81010312610126575180151581146101c157600080fd5b3d9150610334565b34610126576020366003190112610126576001600160a01b0361038161070e565b1660005260026020526103a16103a8604060002060405192838092610780565b0382610724565b60405190602082528181519182602083015260005b8381106103df5750508160006040809484010152601f80199101168101030190f35b602082820181015160408784010152859350016103bd565b346101265760003660031901126101265760206001600160a01b0360005416604051908152f35b602036600319011261012657600435600154907fe80829958c6bfcf6975b892d75fe361e37dac7a1013e1bcb5bc558498806da8c6104c46040516020810190858252600060408201523460608201528460808201526080815261048260a082610724565b519020600080526002602052604051608080825291949092839283017fac33ff75c19e70fe83507db0d683fd3465c996598dc972688b7ace676c89077b610780565b906012602084015234604084015260608301520390a2600181018091116102a357600155005b3461012657600036600319011261012657610503610803565b60006001600160a01b03815473ffffffffffffffffffffffffffffffffffffffff1981168355167f8be0079c531659141344cd1fd0a4f28419497f9722a3daafe3b4186f6b6457e08280a3005b346101265760403660031901126101265761056961070e565b6024359067ffffffffffffffff8211610126573660238301121561012657816004013567ffffffffffffffff81116106f8576105af601f8201601f191660200185610724565b80845236602482850101116101265760208160009260246001600160a01b03960183880137850101526105e0610803565b1660005260026020526040600020815167ffffffffffffffff81116106f8576106098254610746565b601f81116106b0575b50602092601f82116001146106505792819293600092610645575b5050600019600383901b1c191660019190911b179055005b01519050838061062d565b601f1982169383600052806000209160005b868110610698575083600195961061067f575b505050811b019055005b015160001960f88460031b161c19169055838080610675565b91926020600181928685015181550194019201610662565b826000526020600020601f830160051c810191602084106106ee575b601f0160051c01905b8181106106e25750610612565b600081556001016106d5565b90915081906106cc565b634e487b7160e01b600052604160045260246000fd5b600435906001600160a01b038216820361012657565b90601f8019910116810190811067ffffffffffffffff8211176106f857604052565b90600182811c92168015610776575b602083101461076057565b634e487b7160e01b600052602260045260246000fd5b91607f1691610755565b6000929181549161079083610746565b80835292600181169081156107e657506001146107ac57505050565b60009081526020812093945091925b8383106107cc575060209250010190565b6001816020929493945483858701015201910191906107bb565b915050602093945060ff929192191683830152151560051b010190565b6001600160a01b0360005416330361081757565b7f118cdaa7000000000000000000000000000000000000000000000000000000006000523360045260246000fdfea26469706673582212204cb88696f5429e2c8f620255715c4844b68f9cacd6570dfdd2a0f31f9132f5e564736f6c634300081c0033",
          "opcodes": "PUSH1 0x80 DUP1 PUSH1 0x40 MSTORE CALLVALUE PUSH1 0x75 JUMPI CALLER ISZERO PUSH1 0x5F JUMPI PUSH1 0x0 DUP1 SLOAD CALLER PUSH1 0x1 PUSH1 0x1 PUSH1 0xA0 SHL SUB NOT DUP3 AND DUP2 OR DUP4 SSTORE SWAP2 PUSH1 0x1 PUSH1 0x1 PUSH1 0xA0 SHL SUB SWAP1 SWAP2 AND SWAP1 PUSH32 0x8BE0079C531659141344CD1FD0A4F28419497F9722A3DAAFE3B4186F6B6457E0 SWAP1 DUP1 LOG3 PUSH2 0x87B SWAP1 DUP2 PUSH2 0x7B DUP3 CODECOPY RETURN JUMPDEST PUSH4 0x1E4FBDF7 PUSH1 0xE0 SHL PUSH1 0x0 MSTORE PUSH1 0x0 PUSH1 0x4 MSTORE PUSH1 0x24 PUSH1 0x0 REVERT JUMPDEST PUSH1 0x0 DUP1 REVERT INVALID PUSH1 0x80 DUP1 PUSH1 0x40 MSTORE PUSH1 0x4 CALLDATASIZE LT ISZERO PUSH2 0x13 JUMPI PUSH1 0x0 DUP1 REVERT JUMPDEST PUSH1 0x0 CALLDATALOAD PUSH1 0xE0 SHR SWAP1 DUP2 PUSH4 0x4DE4EAFC EQ PUSH2 0x550 JUMPI POP DUP1 PUSH4 0x715018A6 EQ PUSH2 0x4EA JUMPI DUP1 PUSH4 0x77FFD451 EQ PUSH2 0x41E JUMPI DUP1 PUSH4 0x8DA5CB5B EQ PUSH2 0x3F7 JUMPI DUP1 PUSH4 0xB37E4E35 EQ PUSH2 0x360 JUMPI DUP1 PUSH4 0xCA3369C6 EQ PUSH2 0x149 JUMPI DUP1 PUSH4 0xD087D288 EQ PUSH2 0x12B JUMPI PUSH4 0xF2FDE38B EQ PUSH2 0x77 JUMPI PUSH1 0x0 DUP1 REVERT JUMPDEST CALLVALUE PUSH2 0x126 JUMPI PUSH1 0x20 CALLDATASIZE PUSH1 0x3 NOT ADD SLT PUSH2 0x126 JUMPI PUSH1 0x1 PUSH1 0x1 PUSH1 0xA0 SHL SUB PUSH2 0x98 PUSH2 0x70E JUMP JUMPDEST PUSH2 0xA0 PUSH2 0x803 JUMP JUMPDEST AND DUP1 ISZERO PUSH2 0xF7 JUMPI PUSH1 0x1 PUSH1 0x1 PUSH1 0xA0 SHL SUB PUSH1 0x0 SLOAD DUP3 PUSH20 0xFFFFFFFFFFFFFFFFFFFFFFFFFFFFFFFFFFFFFFFF NOT DUP3 AND OR PUSH1 0x0 SSTORE AND PUSH32 0x8BE0079C531659141344CD1FD0A4F28419497F9722A3DAAFE3B4186F6B6457E0 PUSH1 0x0 DUP1 LOG3 STOP JUMPDEST PUSH32 0x1E4FBDF700000000000000000000000000000000000000000000000000000000 PUSH1 0x0 MSTORE PUSH1 0x0 PUSH1 0x4 MSTORE PUSH1 0x24 PUSH1 0x0 REVERT JUMPDEST PUSH1 0x0 DUP1 REVERT JUMPDEST CALLVALUE PUSH2 0x126 JUMPI PUSH1 0x0 CALLDATASIZE PUSH1 0x3 NOT ADD SLT PUSH2 0x126 JUMPI PUSH1 0x20 PUSH1 0x1 SLOAD PUSH1 0x40 MLOAD SWAP1 DUP2 MSTORE RETURN JUMPDEST CALLVALUE PUSH2 0x126 JUMPI PUSH1 0x60 CALLDATASIZE PUSH1 0x3 NOT ADD SLT PUSH2 0x126 JUMPI PUSH2 0x162 PUSH2 0x70E JUMP JUMPDEST PUSH1 0x24 CALLDATALOAD PUSH1 0x1 PUSH1 0x1 PUSH1 0xA0 SHL SUB PUSH1 0x44 CALLDATALOAD SWAP3 AND SWAP1 PUSH1 0x40 MLOAD PUSH32 0x23B872DD00000000000000000000000000000000000000000000000000000000 DUP2 MSTORE CALLER PUSH1 0x4 DUP3 ADD MSTORE ADDRESS PUSH1 0x24 DUP3 ADD MSTORE DUP2 PUSH1 0x44 DUP3 ADD MSTORE PUSH1 0x20 DUP2 PUSH1 0x64 DUP2 PUSH1 0x0 DUP8 GAS CALL DUP1 ISZERO PUSH2 0x31C JUMPI PUSH2 0x328 JUMPI JUMPDEST POP PUSH1 0x40 MLOAD PUSH32 0x313CE56700000000000000000000000000000000000000000000000000000000 DUP2 MSTORE PUSH1 0x20 DUP2 PUSH1 0x4 DUP2 DUP7 GAS STATICCALL SWAP1 DUP2 ISZERO PUSH2 0x31C JUMPI PUSH1 0x0 SWAP2 PUSH2 0x2B9 JUMPI JUMPDEST POP PUSH32 0xE80829958C6BFCF6975B892D75FE361E37DAC7A1013E1BCB5BC558498806DA8C SWAP2 PUSH2 0x27F SWAP2 PUSH1 0x1 SLOAD SWAP6 PUSH1 0x40 MLOAD PUSH1 0x20 DUP2 ADD SWAP1 DUP9 DUP3 MSTORE DUP8 PUSH1 0x40 DUP3 ADD MSTORE DUP5 PUSH1 0x60 DUP3 ADD MSTORE DUP3 PUSH1 0x80 DUP3 ADD MSTORE PUSH1 0x80 DUP2 MSTORE PUSH2 0x257 PUSH1 0xA0 DUP3 PUSH2 0x724 JUMP JUMPDEST MLOAD SWAP1 KECCAK256 SWAP6 PUSH1 0x0 MSTORE PUSH1 0x2 PUSH1 0x20 MSTORE PUSH1 0x40 PUSH1 0x0 KECCAK256 SWAP3 PUSH1 0xFF PUSH1 0x40 MLOAD SWAP6 DUP7 SWAP6 PUSH1 0x80 DUP8 MSTORE PUSH1 0x80 DUP8 ADD SWAP1 PUSH2 0x780 JUMP JUMPDEST SWAP4 AND PUSH1 0x20 DUP6 ADD MSTORE PUSH1 0x40 DUP5 ADD MSTORE PUSH1 0x60 DUP4 ADD MSTORE SUB SWAP1 LOG2 PUSH1 0x1 DUP2 ADD DUP1 SWAP2 GT PUSH2 0x2A3 JUMPI PUSH1 0x1 SSTORE STOP JUMPDEST PUSH4 0x4E487B71 PUSH1 0xE0 SHL PUSH1 0x0 MSTORE PUSH1 0x11 PUSH1 0x4 MSTORE PUSH1 0x24 PUSH1 0x0 REVERT JUMPDEST PUSH1 0x20 DUP2 RETURNDATASIZE PUSH1 0x20 GT PUSH2 0x314 JUMPI JUMPDEST DUP2 PUSH2 0x2D2 PUSH1 0x20 SWAP4 DUP4 PUSH2 0x724 JUMP JUMPDEST DUP2 ADD SUB SLT PUSH2 0x310 JUMPI MLOAD SWAP1 PUSH1 0xFF DUP3 AND DUP3 SUB PUSH2 0x30D JUMPI POP PUSH32 0xE80829958C6BFCF6975B892D75FE361E37DAC7A1013E1BCB5BC558498806DA8C PUSH2 0x200 JUMP JUMPDEST DUP1 REVERT JUMPDEST POP DUP1 REVERT JUMPDEST RETURNDATASIZE SWAP2 POP PUSH2 0x2C5 JUMP JUMPDEST PUSH1 0x40 MLOAD RETURNDATASIZE PUSH1 0x0 DUP3 RETURNDATACOPY RETURNDATASIZE SWAP1 REVERT JUMPDEST PUSH1 0x20 DUP2 RETURNDATASIZE PUSH1 0x20 GT PUSH2 0x358 JUMPI JUMPDEST DUP2 PUSH2 0x341 PUSH1 0x20 SWAP4 DUP4 PUSH2 0x724 JUMP JUMPDEST DUP2 ADD SUB SLT PUSH2 0x126 JUMPI MLOAD DUP1 ISZERO ISZERO DUP2 EQ PUSH2 0x1C1 JUMPI PUSH1 0x0 DUP1 REVERT JUMPDEST RETURNDATASIZE SWAP2 POP PUSH2 0x334 JUMP JUMPDEST CALLVALUE PUSH2 0x126 JUMPI PUSH1 0x20 CALLDATASIZE PUSH1 0x3 NOT ADD SLT PUSH2 0x126 JUMPI PUSH1 0x1 PUSH1 0x1 PUSH1 0xA0 SHL SUB PUSH2 0x381 PUSH2 0x70E JUMP JUMPDEST AND PUSH1 0x0 MSTORE PUSH1 0x2 PUSH1 0x20 MSTORE PUSH2 0x3A1 PUSH2 0x3A8 PUSH1 0x40 PUSH1 0x0 KECCAK256 PUSH1 0x40 MLOAD SWAP3 DUP4 DUP1 SWAP3 PUSH2 0x780 JUMP JUMPDEST SUB DUP3 PUSH2 0x724 JUMP JUMPDEST PUSH1 0x40 MLOAD SWAP1 PUSH1 0x20 DUP3 MSTORE DUP2 DUP2 MLOAD SWAP2 DUP3 PUSH1 0x20 DUP4 ADD MSTORE PUSH1 0x0 JUMPDEST DUP4 DUP2 LT PUSH2 0x3DF JUMPI POP POP DUP2 PUSH1 0x0 PUSH1 0x40 DUP1 SWAP5 DUP5 ADD ADD MSTORE PUSH1 0x1F DUP1 NOT SWAP2 ADD AND DUP2 ADD SUB ADD SWAP1 RETURN JUMPDEST PUSH1 0x20 DUP3 DUP3 ADD DUP2 ADD MLOAD PUSH1 0x40 DUP8 DUP5 ADD ADD MSTORE DUP6 SWAP4 POP ADD PUSH2 0x3BD JUMP JUMPDEST CALLVALUE PUSH2 0x126 JUMPI PUSH1 0x0 CALLDATASIZE PUSH1 0x3 NOT ADD SLT PUSH2 0x126 JUMPI PUSH1 0x20 PUSH1 0x1 PUSH1 0x1 PUSH1 0xA0 SHL SUB PUSH1 0x0 SLOAD AND PUSH1 0x40 MLOAD SWAP1 DUP2 MSTORE RETURN JUMPDEST PUSH1 0x20 CALLDATASIZE PUSH1 0x3 NOT ADD SLT PUSH2 0x126 JUMPI PUSH1 0x4 CALLDATALOAD PUSH1 0x1 SLOAD SWAP1 PUSH32 0xE80829958C6BFCF6975B892D75FE361E37DAC7A1013E1BCB5BC558498806DA8C PUSH2 0x4C4 PUSH1 0x40 MLOAD PUSH1 0x20 DUP2 ADD SWAP1 DUP6 DUP3 MSTORE PUSH1 0x0 PUSH1 0x40 DUP3 ADD MSTORE CALLVALUE PUSH1 0x60 DUP3 ADD MSTORE DUP5 PUSH1 0x80 DUP3 ADD MSTORE PUSH1 0x80 DUP2 MSTORE PUSH2 0x482 PUSH1 0xA0 DUP3 PUSH2 0x724 JUMP JUMPDEST MLOAD SWAP1 KECCAK256 PUSH1 0x0 DUP1 MSTORE PUSH1 0x2 PUSH1 0x20 MSTORE PUSH1 0x40 MLOAD PUSH1 0x80 DUP1 DUP3 MSTORE SWAP2 SWAP5 SWAP1 SWAP3 DUP4 SWAP3 DUP4 ADD PUSH32 0xAC33FF75C19E70FE83507DB0D683FD3465C996598DC972688B7ACE676C89077B PUSH2 0x780 JUMP JUMPDEST SWAP1 PUSH1 0x12 PUSH1 0x20 DUP5 ADD MSTORE CALLVALUE PUSH1 0x40 DUP5 ADD MSTORE PUSH1 0x60 DUP4 ADD MSTORE SUB SWAP1 LOG2 PUSH1 0x1 DUP2 ADD DUP1 SWAP2 GT PUSH2 0x2A3 JUMPI PUSH1 0x1 SSTORE STOP JUMPDEST CALLVALUE PUSH2 0x126 JUMPI PUSH1 0x0 CALLDATASIZE PUSH1 0x3 NOT ADD SLT PUSH2 0x126 JUMPI PUSH2 0x503 PUSH2 0x803 JUMP JUMPDEST PUSH1 0x0 PUSH1 0x1 PUSH1 0x1 PUSH1 0xA0 SHL SUB DUP2 SLOAD PUSH20 0xFFFFFFFFFFFFFFFFFFFFFFFFFFFFFFFFFFFFFFFF NOT DUP2 AND DUP4 SSTORE AND PUSH32 0x8BE0079C531659141344CD1FD0A4F28419497F9722A3DAAFE3B4186F6B6457E0 DUP3 DUP1 LOG3 STOP JUMPDEST CALLVALUE PUSH2 0x126 JUMPI PUSH1 0x40 CALLDATASIZE PUSH1 0x3 NOT ADD SLT PUSH2 0x126 JUMPI PUSH2 0x569 PUSH2 0x70E JUMP JUMPDEST PUSH1 0x24 CALLDATALOAD SWAP1 PUSH8 0xFFFFFFFFFFFFFFFF DUP3 GT PUSH2 0x126 JUMPI CALLDATASIZE PUSH1 0x23 DUP4 ADD SLT ISZERO PUSH2 0x126 JUMPI DUP2 PUSH1 0x4 ADD CALLDATALOAD PUSH8 0xFFFFFFFFFFFFFFFF DUP2 GT PUSH2 0x6F8 JUMPI PUSH2 0x5AF PUSH1 0x1F DUP3 ADD PUSH1 0x1F NOT AND PUSH1 0x20 ADD DUP6 PUSH2 0x724 JUMP JUMPDEST DUP1 DUP5 MSTORE CALLDATASIZE PUSH1 0x24 DUP3 DUP6 ADD ADD GT PUSH2 0x126 JUMPI PUSH1 0x20 DUP2 PUSH1 0x0 SWAP3 PUSH1 0x24 PUSH1 0x1 PUSH1 0x1 PUSH1 0xA0 SHL SUB SWAP7 ADD DUP4 DUP9 ADD CALLDATACOPY DUP6 ADD ADD MSTORE PUSH2 0x5E0 PUSH2 0x803 JUMP JUMPDEST AND PUSH1 0x0 MSTORE PUSH1 0x2 PUSH1 0x20 MSTORE PUSH1 0x40 PUSH1 0x0 KECCAK256 DUP2 MLOAD PUSH8 0xFFFFFFFFFFFFFFFF DUP2 GT PUSH2 0x6F8 JUMPI PUSH2 0x609 DUP3 SLOAD PUSH2 0x746 JUMP JUMPDEST PUSH1 0x1F DUP2 GT PUSH2 0x6B0 JUMPI JUMPDEST POP PUSH1 0x20 SWAP3 PUSH1 0x1F DUP3 GT PUSH1 0x1 EQ PUSH2 0x650 JUMPI SWAP3 DUP2 SWAP3 SWAP4 PUSH1 0x0 SWAP3 PUSH2 0x645 JUMPI JUMPDEST POP POP PUSH1 0x0 NOT PUSH1 0x3 DUP4 SWAP1 SHL SHR NOT AND PUSH1 0x1 SWAP2 SWAP1 SWAP2 SHL OR SWAP1 SSTORE STOP JUMPDEST ADD MLOAD SWAP1 POP DUP4 DUP1 PUSH2 0x62D JUMP JUMPDEST PUSH1 0x1F NOT DUP3 AND SWAP4 DUP4 PUSH1 0x0 MSTORE DUP1 PUSH1 0x0 KECCAK256 SWAP2 PUSH1 0x0 JUMPDEST DUP7 DUP2 LT PUSH2 0x698 JUMPI POP DUP4 PUSH1 0x1 SWAP6 SWAP7 LT PUSH2 0x67F JUMPI JUMPDEST POP POP POP DUP2 SHL ADD SWAP1 SSTORE STOP JUMPDEST ADD MLOAD PUSH1 0x0 NOT PUSH1 0xF8 DUP5 PUSH1 0x3 SHL AND SHR NOT AND SWAP1 SSTORE DUP4 DUP1 DUP1 PUSH2 0x675 JUMP JUMPDEST SWAP2 SWAP3 PUSH1 0x20 PUSH1 0x1 DUP2 SWAP3 DUP7 DUP6 ADD MLOAD DUP2 SSTORE ADD SWAP5 ADD SWAP3 ADD PUSH2 0x662 JUMP JUMPDEST DUP3 PUSH1 0x0 MSTORE PUSH1 0x20 PUSH1 0x0 KECCAK256 PUSH1 0x1F DUP4 ADD PUSH1 0x5 SHR DUP2 ADD SWAP2 PUSH1 0x20 DUP5 LT PUSH2 0x6EE JUMPI JUMPDEST PUSH1 0x1F ADD PUSH1 0x5 SHR ADD SWAP1 JUMPDEST DUP2 DUP2 LT PUSH2 0x6E2 JUMPI POP PUSH2 0x612 JUMP JUMPDEST PUSH1 0x0 DUP2 SSTORE PUSH1 0x1 ADD PUSH2 0x6D5 JUMP JUMPDEST SWAP1 SWAP2 POP DUP2 SWAP1 PUSH2 0x6CC JUMP JUMPDEST PUSH4 0x4E487B71 PUSH1 0xE0 SHL PUSH1 0x0 MSTORE PUSH1 0x41 PUSH1 0x4 MSTORE PUSH1 0x24 PUSH1 0x0 REVERT JUMPDEST PUSH1 0x4 CALLDATALOAD SWAP1 PUSH1 0x1 PUSH1 0x1 PUSH1 0xA0 SHL SUB DUP3 AND DUP3 SUB PUSH2 0x126 JUMPI JUMP JUMPDEST SWAP1 PUSH1 0x1F DUP1 NOT SWAP2 ADD AND DUP2 ADD SWAP1 DUP2 LT PUSH8 0xFFFFFFFFFFFFFFFF DUP3 GT OR PUSH2 0x6F8 JUMPI PUSH1 0x40 MSTORE JUMP JUMPDEST SWAP1 PUSH1 0x1 DUP3 DUP2 SHR SWAP3 AND DUP1 ISZERO PUSH2 0x776 JUMPI JUMPDEST PUSH1 0x20 DUP4 LT EQ PUSH2 0x760 JUMPI JUMP JUMPDEST PUSH4 0x4E487B71 PUSH1 0xE0 SHL PUSH1 0x0 MSTORE PUSH1 0x22 PUSH1 0x4 MSTORE PUSH1 0x24 PUSH1 0x0 REVERT JUMPDEST SWAP2 PUSH1 0x7F AND SWAP2 PUSH2 0x755 JUMP JUMPDEST PUSH1 0x0 SWAP3 SWAP2 DUP2 SLOAD SWAP2 PUSH2 0x790 DUP4 PUSH2 0x746 JUMP JUMPDEST DUP1 DUP4 MSTORE SWAP3 PUSH1 0x1 DUP2 AND SWAP1 DUP2 ISZERO PUSH2 0x7E6 JUMPI POP PUSH1 0x1 EQ PUSH2 0x7AC JUMPI POP POP POP JUMP JUMPDEST PUSH1 0x0 SWAP1 DUP2 MSTORE PUSH1 0x20 DUP2 KECCAK256 SWAP4 SWAP5 POP SWAP2 SWAP3 JUMPDEST DUP4 DUP4 LT PUSH2 0x7CC JUMPI POP PUSH1 0x20 SWAP3 POP ADD ADD SWAP1 JUMP JUMPDEST PUSH1 0x1 DUP2 PUSH1 0x20 SWAP3 SWAP5 SWAP4 SWAP5 SLOAD DUP4 DUP6 DUP8 ADD ADD MSTORE ADD SWAP2 ADD SWAP2 SWAP1 PUSH2 0x7BB JUMP JUMPDEST SWAP2 POP POP PUSH1 0x20 SWAP4 SWAP5 POP PUSH1 0xFF SWAP3 SWAP2 SWAP3 NOT AND DUP4 DUP4 ADD MSTORE ISZERO ISZERO PUSH1 0x5 SHL ADD ADD SWAP1 JUMP JUMPDEST PUSH1 0x1 PUSH1 0x1 PUSH1 0xA0 SHL SUB PUSH1 0x0 SLOAD AND CALLER SUB PUSH2 0x817 JUMPI JUMP JUMPDEST PUSH32 0x118CDAA700000000000000000000000000000000000000000000000000000000 PUSH1 0x0 MSTORE CALLER PUSH1 0x4 MSTORE PUSH1 0x24 PUSH1 0x0 REVERT INVALID LOG2 PUSH5 0x6970667358 0x22 SLT KECCAK256 0x4C 0xB8 DUP7 SWAP7 CREATE2 TIMESTAMP SWAP15 0x2C DUP16 PUSH3 0x25571 TLOAD BASEFEE PREVRANDAO 0xB6 DUP16 SWAP13 0xAC 0xD6 JUMPI 0xD REVERT 0xD2 LOG0 RETURN 0x1F SWAP2 ORIGIN CREATE2 0xE5 PUSH5 0x736F6C6343 STOP ADDMOD SHR STOP CALLER "
        },
        "methodIdentifiers": {
          "getCoinType(address)": "b37e4e35",
          "getNonce()": "d087d288",
          "lock(address,uint256,bytes32)": "ca3369c6",
          "lockETH(bytes32)": "77ffd451",
          "owner()": "8da5cb5b",
          "renounceOwnership()": "715018a6",
          "setCoinType(address,string)": "4de4eafc",
          "transferOwnership(address)": "f2fde38b"
        }
      }
    }
  }
}