{
  "_format": "hh-sol-artifact-1",
  "contractName": "Nebula",
  "sourceName": "contracts/Nebula.sol",
  "abi": [
    {
      "inputs": [],
      "stateMutability": "nonpayable",
      "type": "constructor"
    },
    {
      "inputs": [
        {
          "internalType": "address",
          "name": "owner",
          "type": "address"
        }
      ],
      "name": "OwnableInvalidOwner",
      "type": "error"
    },
    {
      "inputs": [
        {
          "internalType": "address",
          "name": "account",
          "type": "address"
        }
      ],
      "name": "OwnableUnauthorizedAccount",
      "type": "error"
    },
    {
      "anonymous": false,
      "inputs": [
        {
          "indexed": true,
          "internalType": "address",
          "name": "previousOwner",
          "type": "address"
        },
        {
          "indexed": true,
          "internalType": "address",
          "name": "newOwner",
          "type": "address"
        }
      ],
      "name": "OwnershipTransferred",
      "type": "event"
    },
    {
      "anonymous": false,
      "inputs": [
        {
          "indexed": true,
          "internalType": "bytes32",
          "name": "uid",
          "type": "bytes32"
        },
        {
          "indexed": false,
          "internalType": "string",
          "name": "coinType",
          "type": "string"
        },
        {
          "indexed": false,
          "internalType": "uint256",
          "name": "decimals",
          "type": "uint256"
        },
        {
          "indexed": false,
          "internalType": "uint256",
          "name": "amount",
          "type": "uint256"
        },
        {
          "indexed": false,
          "internalType": "bytes32",
          "name": "receiver",
          "type": "bytes32"
        }
      ],
      "name": "TokenLocked",
      "type": "event"
    },
    {
      "inputs": [
        {
          "internalType": "address",
          "name": "token",
          "type": "address"
        }
      ],
      "name": "getCoinType",
      "outputs": [
        {
          "internalType": "string",
          "name": "",
          "type": "string"
        }
      ],
      "stateMutability": "view",
      "type": "function"
    },
    {
      "inputs": [],
      "name": "getNonce",
      "outputs": [
        {
          "internalType": "uint256",
          "name": "",
          "type": "uint256"
        }
      ],
      "stateMutability": "view",
      "type": "function"
    },
    {
      "inputs": [
        {
          "internalType": "address",
          "name": "token",
          "type": "address"
        },
        {
          "internalType": "uint256",
          "name": "amount",
          "type": "uint256"
        },
        {
          "internalType": "bytes32",
          "name": "receiver",
          "type": "bytes32"
        }
      ],
      "name": "lock",
      "outputs": [],
      "stateMutability": "nonpayable",
      "type": "function"
    },
    {
      "inputs": [
        {
          "internalType": "bytes32",
          "name": "receiver",
          "type": "bytes32"
        }
      ],
      "name": "lockETH",
      "outputs": [],
      "stateMutability": "payable",
      "type": "function"
    },
    {
      "inputs": [],
      "name": "owner",
      "outputs": [
        {
          "internalType": "address",
          "name": "",
          "type": "address"
        }
      ],
      "stateMutability": "view",
      "type": "function"
    },
    {
      "inputs": [],
      "name": "renounceOwnership",
      "outputs": [],
      "stateMutability": "nonpayable",
      "type": "function"
    },
    {
      "inputs": [
        {
          "internalType": "address",
          "name": "token",
          "type": "address"
        },
        {
          "internalType": "string",
          "name": "coinType",
          "type": "string"
        }
      ],
      "name": "setCoinType",
      "outputs": [],
      "stateMutability": "nonpayable",
      "type": "function"
    },
    {
      "inputs": [
        {
          "internalType": "address",
          "name": "newOwner",
          "type": "address"
        }
      ],
      "name": "transferOwnership",
      "outputs": [],
      "stateMutability": "nonpayable",
      "type": "function"
    }
  ],
  "bytecode": "0x608080604052346075573315605f5760008054336001600160a01b0319821681178355916001600160a01b03909116907f8be0079c531659141344cd1fd0a4f28419497f9722a3daafe3b4186f6b6457e09080a361087b908161007b8239f35b631e4fbdf760e01b600052600060045260246000fd5b600080fdfe608080604052600436101561001357600080fd5b60003560e01c9081634de4eafc1461055057508063715018a6146104ea57806377ffd4511461041e5780638da5cb5b146103f7578063b37e4e3514610360578063ca3369c614610149578063d087d2881461012b5763f2fde38b1461007757600080fd5b34610126576020366003190112610126576001600160a01b0361009861070e565b6100a0610803565b1680156100f7576001600160a01b036000548273ffffffffffffffffffffffffffffffffffffffff19821617600055167f8be0079c531659141344cd1fd0a4f28419497f9722a3daafe3b4186f6b6457e0600080a3005b7f1e4fbdf700000000000000000000000000000000000000000000000000000000600052600060045260246000fd5b600080fd5b34610126576000366003190112610126576020600154604051908152f35b346101265760603660031901126101265761016261070e565b6024356001600160a01b036044359216906040517f23b872dd0000000000000000000000000000000000000000000000000000000081523360048201523060248201528160448201526020816064816000875af1801561031c57610328575b506040517f313ce567000000000000000000000000000000000000000000000000000000008152602081600481865afa90811561031c576000916102b9575b507fe80829958c6bfcf6975b892d75fe361e37dac7a1013e1bcb5bc558498806da8c9161027f916001549560405160208101908882528760408201528460608201528260808201526080815261025760a082610724565b51902095600052600260205260406000209260ff604051958695608087526080870190610780565b93166020850152604084015260608301520390a2600181018091116102a357600155005b634e487b7160e01b600052601160045260246000fd5b6020813d602011610314575b816102d260209383610724565b8101031261031057519060ff8216820361030d57507fe80829958c6bfcf6975b892d75fe361e37dac7a1013e1bcb5bc558498806da8c610200565b80fd5b5080fd5b3d91506102c5565b6040513d6000823e3d90fd5b6020813d602011610358575b8161034160209383610724565b81010312610126575180151581146101c157600080fd5b3d9150610334565b34610126576020366003190112610126576001600160a01b0361038161070e565b1660005260026020526103a16103a8604060002060405192838092610780565b0382610724565b60405190602082528181519182602083015260005b8381106103df5750508160006040809484010152601f80199101168101030190f35b602082820181015160408784010152859350016103bd565b346101265760003660031901126101265760206001600160a01b0360005416604051908152f35b602036600319011261012657600435600154907fe80829958c6bfcf6975b892d75fe361e37dac7a1013e1bcb5bc558498806da8c6104c46040516020810190858252600060408201523460608201528460808201526080815261048260a082610724565b519020600080526002602052604051608080825291949092839283017fac33ff75c19e70fe83507db0d683fd3465c996598dc972688b7ace676c89077b610780565b906012602084015234604084015260608301520390a2600181018091116102a357600155005b3461012657600036600319011261012657610503610803565b60006001600160a01b03815473ffffffffffffffffffffffffffffffffffffffff1981168355167f8be0079c531659141344cd1fd0a4f28419497f9722a3daafe3b4186f6b6457e08280a3005b346101265760403660031901126101265761056961070e565b6024359067ffffffffffffffff8211610126573660238301121561012657816004013567ffffffffffffffff81116106f8576105af601f8201601f191660200185610724565b80845236602482850101116101265760208160009260246001600160a01b03960183880137850101526105e0610803565b1660005260026020526040600020815167ffffffffffffffff81116106f8576106098254610746565b601f81116106b0575b50602092601f82116001146106505792819293600092610645575b5050600019600383901b1c191660019190911b179055005b01519050838061062d565b601f1982169383600052806000209160005b868110610698575083600195961061067f575b505050811b019055005b015160001960f88460031b161c19169055838080610675565b91926020600181928685015181550194019201610662565b826000526020600020601f830160051c810191602084106106ee575b601f0160051c01905b8181106106e25750610612565b600081556001016106d5565b90915081906106cc565b634e487b7160e01b600052604160045260246000fd5b600435906001600160a01b038216820361012657565b90601f8019910116810190811067ffffffffffffffff8211176106f857604052565b90600182811c92168015610776575b602083101461076057565b634e487b7160e01b600052602260045260246000fd5b91607f1691610755565b6000929181549161079083610746565b80835292600181169081156107e657506001146107ac57505050565b60009081526020812093945091925b8383106107cc575060209250010190565b6001816020929493945483858701015201910191906107bb565b915050602093945060ff929192191683830152151560051b010190565b6001600160a01b0360005416330361081757565b7f118cdaa7000000000000000000000000000000000000000000000000000000006000523360045260246000fdfea26469706673582212204cb88696f5429e2c8f620255715c4844b68f9cacd6570dfdd2a0f31f9132f5e564736f6c634300081c0033",
  "linkReferences": {},
  "deployedLinkReferences": {}
}